{"abi":[{"type":"constructor","inputs":[{"name":"_localDomain","type":"uint32","internalType":"uint32"}],"stateMutability":"nonpayable"},{"type":"function","name":"PACKAGE_VERSION","inputs":[],"outputs":[{"name":"","type":"string","internalType":"string"}],"stateMutability":"view"},{"type":"function","name":"VERSION","inputs":[],"outputs":[{"name":"","type":"uint8","internalType":"uint8"}],"stateMutability":"view"},{"type":"function","name":"defaultHook","inputs":[],"outputs":[{"name":"","type":"address","internalType":"contract IPostDispatchHook"}],"stateMutability":"view"},{"type":"function","name":"defaultIsm","inputs":[],"outputs":[{"name":"","type":"address","internalType":"contract IInterchainSecurityModule"}],"stateMutability":"view"},{"type":"function","name":"delivered","inputs":[{"name":"_id","type":"bytes32","internalType":"bytes32"}],"outputs":[{"name":"","type":"bool","internalType":"bool"}],"stateMutability":"view"},{"type":"function","name":"deployedBlock","inputs":[],"outputs":[{"name":"","type":"uint256","internalType":"uint256"}],"stateMutability":"view"},{"type":"function","name":"dispatch","inputs":[{"name":"destinationDomain","type":"uint32","internalType":"uint32"},{"name":"recipientAddress","type":"bytes32","internalType":"bytes32"},{"name":"messageBody","type":"bytes","internalType":"bytes"},{"name":"metadata","type":"bytes","internalType":"bytes"},{"name":"hook","type":"address","internalType":"contract IPostDispatchHook"}],"outputs":[{"name":"","type":"bytes32","internalType":"bytes32"}],"stateMutability":"payable"},{"type":"function","name":"dispatch","inputs":[{"name":"destinationDomain","type":"uint32","internalType":"uint32"},{"name":"recipientAddress","type":"bytes32","internalType":"bytes32"},{"name":"messageBody","type":"bytes","internalType":"bytes"},{"name":"hookMetadata","type":"bytes","internalType":"bytes"}],"outputs":[{"name":"","type":"bytes32","internalType":"bytes32"}],"stateMutability":"payable"},{"type":"function","name":"dispatch","inputs":[{"name":"_destinationDomain","type":"uint32","internalType":"uint32"},{"name":"_recipientAddress","type":"bytes32","internalType":"bytes32"},{"name":"_messageBody","type":"bytes","internalType":"bytes"}],"outputs":[{"name":"","type":"bytes32","internalType":"bytes32"}],"stateMutability":"payable"},{"type":"function","name":"initialize","inputs":[{"name":"_owner","type":"address","internalType":"address"},{"name":"_defaultIsm","type":"address","internalType":"address"},{"name":"_defaultHook","type":"address","internalType":"address"},{"name":"_requiredHook","type":"address","internalType":"address"}],"outputs":[],"stateMutability":"nonpayable"},{"type":"function","name":"latestDispatchedId","inputs":[],"outputs":[{"name":"","type":"bytes32","internalType":"bytes32"}],"stateMutability":"view"},{"type":"function","name":"localDomain","inputs":[],"outputs":[{"name":"","type":"uint32","internalType":"uint32"}],"stateMutability":"view"},{"type":"function","name":"nonce","inputs":[],"outputs":[{"name":"","type":"uint32","internalType":"uint32"}],"stateMutability":"view"},{"type":"function","name":"owner","inputs":[],"outputs":[{"name":"","type":"address","internalType":"address"}],"stateMutability":"view"},{"type":"function","name":"process","inputs":[{"name":"_metadata","type":"bytes","internalType":"bytes"},{"name":"_message","type":"bytes","internalType":"bytes"}],"outputs":[],"stateMutability":"payable"},{"type":"function","name":"processedAt","inputs":[{"name":"_id","type":"bytes32","internalType":"bytes32"}],"outputs":[{"name":"","type":"uint48","internalType":"uint48"}],"stateMutability":"view"},{"type":"function","name":"processor","inputs":[{"name":"_id","type":"bytes32","internalType":"bytes32"}],"outputs":[{"name":"","type":"address","internalType":"address"}],"stateMutability":"view"},{"type":"function","name":"quoteDispatch","inputs":[{"name":"destinationDomain","type":"uint32","internalType":"uint32"},{"name":"recipientAddress","type":"bytes32","internalType":"bytes32"},{"name":"messageBody","type":"bytes","internalType":"bytes"},{"name":"metadata","type":"bytes","internalType":"bytes"},{"name":"hook","type":"address","internalType":"contract IPostDispatchHook"}],"outputs":[{"name":"fee","type":"uint256","internalType":"uint256"}],"stateMutability":"view"},{"type":"function","name":"quoteDispatch","inputs":[{"name":"destinationDomain","type":"uint32","internalType":"uint32"},{"name":"recipientAddress","type":"bytes32","internalType":"bytes32"},{"name":"messageBody","type":"bytes","internalType":"bytes"}],"outputs":[{"name":"fee","type":"uint256","internalType":"uint256"}],"stateMutability":"view"},{"type":"function","name":"quoteDispatch","inputs":[{"name":"destinationDomain","type":"uint32","internalType":"uint32"},{"name":"recipientAddress","type":"bytes32","internalType":"bytes32"},{"name":"messageBody","type":"bytes","internalType":"bytes"},{"name":"defaultHookMetadata","type":"bytes","internalType":"bytes"}],"outputs":[{"name":"fee","type":"uint256","internalType":"uint256"}],"stateMutability":"view"},{"type":"function","name":"recipientIsm","inputs":[{"name":"_recipient","type":"address","internalType":"address"}],"outputs":[{"name":"","type":"address","internalType":"contract IInterchainSecurityModule"}],"stateMutability":"view"},{"type":"function","name":"renounceOwnership","inputs":[],"outputs":[],"stateMutability":"nonpayable"},{"type":"function","name":"requiredHook","inputs":[],"outputs":[{"name":"","type":"address","internalType":"contract IPostDispatchHook"}],"stateMutability":"view"},{"type":"function","name":"setDefaultHook","inputs":[{"name":"_hook","type":"address","internalType":"address"}],"outputs":[],"stateMutability":"nonpayable"},{"type":"function","name":"setDefaultIsm","inputs":[{"name":"_module","type":"address","internalType":"address"}],"outputs":[],"stateMutability":"nonpayable"},{"type":"function","name":"setRequiredHook","inputs":[{"name":"_hook","type":"address","internalType":"address"}],"outputs":[],"stateMutability":"nonpayable"},{"type":"function","name":"transferOwnership","inputs":[{"name":"newOwner","type":"address","internalType":"address"}],"outputs":[],"stateMutability":"nonpayable"},{"type":"event","name":"DefaultHookSet","inputs":[{"name":"hook","type":"address","indexed":true,"internalType":"address"}],"anonymous":false},{"type":"event","name":"DefaultIsmSet","inputs":[{"name":"module","type":"address","indexed":true,"internalType":"address"}],"anonymous":false},{"type":"event","name":"Dispatch","inputs":[{"name":"sender","type":"address","indexed":true,"internalType":"address"},{"name":"destination","type":"uint32","indexed":true,"internalType":"uint32"},{"name":"recipient","type":"bytes32","indexed":true,"internalType":"bytes32"},{"name":"message","type":"bytes","indexed":false,"internalType":"bytes"}],"anonymous":false},{"type":"event","name":"DispatchId","inputs":[{"name":"messageId","type":"bytes32","indexed":true,"internalType":"bytes32"}],"anonymous":false},{"type":"event","name":"Initialized","inputs":[{"name":"version","type":"uint64","indexed":false,"internalType":"uint64"}],"anonymous":false},{"type":"event","name":"OwnershipTransferred","inputs":[{"name":"previousOwner","type":"address","indexed":true,"internalType":"address"},{"name":"newOwner","type":"address","indexed":true,"internalType":"address"}],"anonymous":false},{"type":"event","name":"Process","inputs":[{"name":"origin","type":"uint32","indexed":true,"internalType":"uint32"},{"name":"sender","type":"bytes32","indexed":true,"internalType":"bytes32"},{"name":"recipient","type":"address","indexed":true,"internalType":"address"}],"anonymous":false},{"type":"event","name":"ProcessId","inputs":[{"name":"messageId","type":"bytes32","indexed":true,"internalType":"bytes32"}],"anonymous":false},{"type":"event","name":"RequiredHookSet","inputs":[{"name":"hook","type":"address","indexed":true,"internalType":"address"}],"anonymous":false},{"type":"error","name":"InvalidInitialization","inputs":[]},{"type":"error","name":"NotInitializing","inputs":[]},{"type":"error","name":"OwnableInvalidOwner","inputs":[{"name":"owner","type":"address","internalType":"address"}]},{"type":"error","name":"OwnableUnauthorizedAccount","inputs":[{"name":"account","type":"address","internalType":"address"}]}],"bytecode":{"object":"0x60c060405234801561000f575f5ffd5b506040516119fc3803806119fc83398101604081905261002e91610040565b4360805263ffffffff1660a05261006a565b5f60208284031215610050575f5ffd5b815163ffffffff81168114610063575f5ffd5b9392505050565b60805160a0516119636100995f395f818161036d015281816108e601526110be01525f61033a01526119635ff3fe608060405260043610610195575f3560e01c80638da5cb5b116100e7578063e70f48ac11610087578063f7ccd32111610062578063f7ccd3211461053f578063f8c8765e1461055e578063fa31de011461057d578063ffa1ad7414610590575f5ffd5b8063e70f48ac146104e2578063f2fde38b14610501578063f794687a14610520575f5ffd5b80639c42bd18116100c25780639c42bd181461043d578063affed0e01461045c578063d6d08a0914610477578063e495f1d414610496575f5ffd5b80638da5cb5b146103a457806393c44847146103e057806399b048091461041e575f5ffd5b80635d1fe5a9116101525780637c39d1301161012d5780637c39d130146102f757806381d2ea951461030a57806382ea7bfe146103295780638d3638f41461035c575f5ffd5b80635d1fe5a9146102905780636e5f516e146102c4578063715018a6146102e3575f5ffd5b806307a2fda11461019957806310b83dc0146101ef578063134fbb4f146102105780631426b7f4146102255780633d1250b71461024657806348aee8d41461027d575b5f5ffd5b3480156101a4575f5ffd5b506101d36101b3366004611392565b5f90815260056020526040902054600160a01b900465ffffffffffff1690565b60405165ffffffffffff90911681526020015b60405180910390f35b6102026101fd366004611413565b6105b6565b6040519081526020016101e6565b34801561021b575f5ffd5b5061020260015481565b348015610230575f5ffd5b5061024461023f3660046114af565b6107f9565b005b348015610251575f5ffd5b50600354610265906001600160a01b031681565b6040516001600160a01b0390911681526020016101e6565b61020261028b3660046114ca565b61084a565b34801561029b575f5ffd5b506102656102aa366004611392565b5f908152600560205260409020546001600160a01b031690565b3480156102cf575f5ffd5b50600254610265906001600160a01b031681565b3480156102ee575f5ffd5b50610244610879565b610244610305366004611553565b61088c565b348015610315575f5ffd5b50610202610324366004611413565b610c3a565b348015610334575f5ffd5b506102027f000000000000000000000000000000000000000000000000000000000000000081565b348015610367575f5ffd5b5061038f7f000000000000000000000000000000000000000000000000000000000000000081565b60405163ffffffff90911681526020016101e6565b3480156103af575f5ffd5b507f9016d09d72d40fdae2fd8ceac6b6234c7706214fd39c1cd1e609a0528c199300546001600160a01b0316610265565b3480156103eb575f5ffd5b50610411604051806040016040528060068152602001651a971898971b60d11b81525081565b6040516101e6919061160c565b348015610429575f5ffd5b506102446104383660046114af565b610d60565b348015610448575f5ffd5b5061020261045736600461161e565b610db1565b348015610467575f5ffd5b505f5461038f9063ffffffff1681565b348015610482575f5ffd5b50600454610265906001600160a01b031681565b3480156104a1575f5ffd5b506104d26104b0366004611392565b5f90815260056020526040902054600160a01b900465ffffffffffff16151590565b60405190151581526020016101e6565b3480156104ed575f5ffd5b506102656104fc3660046114af565b610ddf565b34801561050c575f5ffd5b5061024461051b3660046114af565b610ebc565b34801561052b575f5ffd5b5061024461053a3660046114af565b610ef9565b34801561054a575f5ffd5b506102026105593660046114ca565b610f4a565b348015610569575f5ffd5b5061024461057836600461165c565b610f6e565b61020261058b36600461161e565b611085565b34801561059b575f5ffd5b506105a4600381565b60405160ff90911681526020016101e6565b5f6001600160a01b0382166105d4576003546001600160a01b031691505b5f6105e1898989896110aa565b8051602082012060018181555f80549394509192909190819061060b90849063ffffffff166116c9565b92506101000a81548163ffffffff021916908363ffffffff160217905550888a63ffffffff16336001600160a01b03167f769f711d20c679153d382254f59892613b58a97cc876b249134ac25c80f9c8148560405161066a919061160c565b60405180910390a460405181907f788dbc1b7152732178210e7f4d9d010ef016f9eafbe66786bd7169f56e0c353a905f90a260048054604051630aaccd2360e41b81525f926001600160a01b039092169163aaccd230916106d1918b918b9189910161170d565b602060405180830381865afa1580156106ec573d5f5f3e3d5ffd5b505050506040513d601f19601f82011682018060405250810190610710919061173c565b90508034101561071d5750345b6004805460405163086011b960e01b81526001600160a01b039091169163086011b9918491610752918c918c918a910161170d565b5f604051808303818588803b158015610769575f5ffd5b505af115801561077b573d5f5f3e3d5ffd5b5050505050846001600160a01b031663086011b9823461079b9190611753565b8989876040518563ffffffff1660e01b81526004016107bc9392919061170d565b5f604051808303818588803b1580156107d3575f5ffd5b505af11580156107e5573d5f5f3e3d5ffd5b50949e9d5050505050505050505050505050565b6108016110f2565b600480546001600160a01b0319166001600160a01b0383169081179091556040517f329ec8e2438a73828ecf31a6568d7a91d7b1d79e342b0692914fd053d1a002b1905f90a250565b5f61086e87878787878760035f9054906101000a90046001600160a01b03166105b6565b979650505050505050565b6108816110f2565b61088a5f61114d565b565b600361089883836111bd565b60ff16146108e45760405162461bcd60e51b815260206004820152601460248201527326b0b4b63137bc1d103130b2103b32b939b4b7b760611b60448201526064015b60405180910390fd5b7f000000000000000000000000000000000000000000000000000000000000000063ffffffff1661091583836111e0565b63ffffffff16146109685760405162461bcd60e51b815260206004820152601f60248201527f4d61696c626f783a20756e65787065637465642064657374696e6174696f6e0060448201526064016108db565b5f6109a783838080601f0160208091040260200160405190810160405280939291908181526020018383808284375f920191909152506110e792505050565b5f81815260056020526040902054909150600160a01b900465ffffffffffff1615610a145760405162461bcd60e51b815260206004820152601a60248201527f4d61696c626f783a20616c72656164792064656c69766572656400000000000060448201526064016108db565b5f610a1f8484611202565b90505f610a2b82610ddf565b60408051808201825233815265ffffffffffff43811660208084019182525f898152600590915293909320915182549351909116600160a01b026001600160d01b03199093166001600160a01b03918216179290921790559091508216610a92868661121c565b610a9c8787611234565b63ffffffff167f0d381c2a574ae8f04e213db7cfb4df8df712cdbd427d9868ffef380660ca657460405160405180910390a460405183907f1cae38cdd3d3919489272725a5ae62a4f48b2989b0dae843d3c279fee18073a9905f90a2604051637bf41d7760e11b81526001600160a01b0382169063f7e83aee90610b2a908a908a908a908a90600401611766565b6020604051808303815f875af1158015610b46573d5f5f3e3d5ffd5b505050506040513d601f19601f82011682018060405250810190610b6a919061178c565b610bb65760405162461bcd60e51b815260206004820181905260248201527f4d61696c626f783a2049534d20766572696669636174696f6e206661696c656460448201526064016108db565b816001600160a01b03166356d5d47534610bd08888611234565b610bda898961121c565b610be48a8a611243565b6040518663ffffffff1660e01b8152600401610c0394939291906117ab565b5f604051808303818588803b158015610c1a575f5ffd5b505af1158015610c2c573d5f5f3e3d5ffd5b505050505050505050505050565b5f6001600160a01b038216610c58576003546001600160a01b031691505b5f610c65898989896110aa565b604051630aaccd2360e41b81529091506001600160a01b0384169063aaccd23090610c989088908890869060040161170d565b602060405180830381865afa158015610cb3573d5f5f3e3d5ffd5b505050506040513d601f19601f82011682018060405250810190610cd7919061173c565b60048054604051630aaccd2360e41b81526001600160a01b039091169163aaccd23091610d0a918a918a9188910161170d565b602060405180830381865afa158015610d25573d5f5f3e3d5ffd5b505050506040513d601f19601f82011682018060405250810190610d49919061173c565b610d5391906117d0565b9998505050505050505050565b610d686110f2565b600380546001600160a01b0319166001600160a01b0383169081179091556040517f65a63e5066ee2fcdf9d32a7f1bf7ce71c76066f19d0609dddccd334ab87237d7905f90a250565b5f610dd685858585610dc5868083856117e3565b6003546001600160a01b0316610c3a565b95945050505050565b60408051600481526024810182526020810180516001600160e01b031663de523cf360e01b17905290515f91829182916001600160a01b03861691610e24919061180a565b5f60405180830381855afa9150503d805f8114610e5c576040519150601f19603f3d011682016040523d82523d5f602084013e610e61565b606091505b5091509150818015610e735750805115155b15610ea8575f81806020019051810190610e8d9190611825565b90506001600160a01b03811615610ea657949350505050565b505b50506002546001600160a01b031692915050565b610ec46110f2565b6001600160a01b038116610eed57604051631e4fbdf760e01b81525f60048201526024016108db565b610ef68161114d565b50565b610f016110f2565b600280546001600160a01b0319166001600160a01b0383169081179091556040517fa76ad0adbf45318f8633aa0210f711273d50fbb6fef76ed95bbae97082c75daa905f90a250565b5f61086e87878787878760035f9054906101000a90046001600160a01b0316610c3a565b5f610f7761125e565b805490915060ff600160401b820416159067ffffffffffffffff165f81158015610f9e5750825b90505f8267ffffffffffffffff166001148015610fba5750303b155b905081158015610fc8575080155b15610fe65760405163f92ee8a960e01b815260040160405180910390fd5b845467ffffffffffffffff19166001178555831561101057845460ff60401b1916600160401b1785555b61101989611286565b61102288610ef9565b61102b87610d60565b611034866107f9565b831561107a57845460ff60401b19168555604051600181527fc7f505b2f371ae2175ee4913f4499e1f2633a7b5936321eed1cdaeb6115181d29060200160405180910390a15b505050505050505050565b5f610dd685858585611099868083856117e3565b6003546001600160a01b03166105b6565b5f54606090610dd69060039063ffffffff167f00000000000000000000000000000000000000000000000000000000000000003389898989611297565b805160209091012090565b336111247f9016d09d72d40fdae2fd8ceac6b6234c7706214fd39c1cd1e609a0528c199300546001600160a01b031690565b6001600160a01b03161461088a5760405163118cdaa760e01b81523360048201526024016108db565b7f9016d09d72d40fdae2fd8ceac6b6234c7706214fd39c1cd1e609a0528c19930080546001600160a01b031981166001600160a01b03848116918217845560405192169182907f8be0079c531659141344cd1fd0a4f28419497f9722a3daafe3b4186f6b6457e0905f90a3505050565b5f6111cb60018284866117e3565b6111d491611840565b60f81c90505b92915050565b5f6111ef602d602984866117e3565b6111f891611878565b60e01c9392505050565b5f61121561121084846112d5565b6112e4565b9392505050565b5f61122b6029600984866117e3565b611215916118ae565b5f6111ef6009600584866117e3565b365f61125283604d81876117e3565b915091505b9250929050565b5f807ff0c57e16840df040f15088dc2f81fe391c3923bec73e23a9662efc9c229c6a006111da565b61128e61134c565b610ef681611371565b606088888888888888886040516020016112b89897969594939291906118cb565b604051602081830303815290604052905098975050505050505050565b5f61122b604d602d84866117e3565b5f6001600160a01b038211156113485760405162461bcd60e51b8152602060048201526024808201527f5479706543617374733a2062797465733332546f41646472657373206f766572604482015263666c6f7760e01b60648201526084016108db565b5090565b611354611379565b61088a57604051631afcd79f60e31b815260040160405180910390fd5b610ec461134c565b5f61138261125e565b54600160401b900460ff16919050565b5f602082840312156113a2575f5ffd5b5035919050565b803563ffffffff811681146113bc575f5ffd5b919050565b5f5f83601f8401126113d1575f5ffd5b50813567ffffffffffffffff8111156113e8575f5ffd5b602083019150836020828501011115611257575f5ffd5b6001600160a01b0381168114610ef6575f5ffd5b5f5f5f5f5f5f5f60a0888a031215611429575f5ffd5b611432886113a9565b965060208801359550604088013567ffffffffffffffff811115611454575f5ffd5b6114608a828b016113c1565b909650945050606088013567ffffffffffffffff81111561147f575f5ffd5b61148b8a828b016113c1565b909450925050608088013561149f816113ff565b8091505092959891949750929550565b5f602082840312156114bf575f5ffd5b8135611215816113ff565b5f5f5f5f5f5f608087890312156114df575f5ffd5b6114e8876113a9565b955060208701359450604087013567ffffffffffffffff81111561150a575f5ffd5b61151689828a016113c1565b909550935050606087013567ffffffffffffffff811115611535575f5ffd5b61154189828a016113c1565b979a9699509497509295939492505050565b5f5f5f5f60408587031215611566575f5ffd5b843567ffffffffffffffff81111561157c575f5ffd5b611588878288016113c1565b909550935050602085013567ffffffffffffffff8111156115a7575f5ffd5b6115b3878288016113c1565b95989497509550505050565b5f5b838110156115d95781810151838201526020016115c1565b50505f910152565b5f81518084526115f88160208601602086016115bf565b601f01601f19169290920160200192915050565b602081525f61121560208301846115e1565b5f5f5f5f60608587031215611631575f5ffd5b61163a856113a9565b935060208501359250604085013567ffffffffffffffff8111156115a7575f5ffd5b5f5f5f5f6080858703121561166f575f5ffd5b843561167a816113ff565b9350602085013561168a816113ff565b9250604085013561169a816113ff565b915060608501356116aa816113ff565b939692955090935050565b634e487b7160e01b5f52601160045260245ffd5b63ffffffff81811683821601908111156111da576111da6116b5565b81835281816020850137505f828201602090810191909152601f909101601f19169091010190565b604081525f6117206040830185876116e5565b828103602084015261173281856115e1565b9695505050505050565b5f6020828403121561174c575f5ffd5b5051919050565b818103818111156111da576111da6116b5565b604081525f6117796040830186886116e5565b828103602084015261086e8185876116e5565b5f6020828403121561179c575f5ffd5b81518015158114611215575f5ffd5b63ffffffff85168152836020820152606060408201525f6117326060830184866116e5565b808201808211156111da576111da6116b5565b5f5f858511156117f1575f5ffd5b838611156117fd575f5ffd5b5050820193919092039150565b5f825161181b8184602087016115bf565b9190910192915050565b5f60208284031215611835575f5ffd5b8151611215816113ff565b80356001600160f81b03198116906001841015611871576001600160f81b0319600185900360031b81901b82161691505b5092915050565b80356001600160e01b03198116906004841015611871576001600160e01b031960049490940360031b84901b1690921692915050565b803560208310156111da575f19602084900360031b1b1692915050565b6001600160f81b031960f88a901b1681526001600160e01b031960e089811b8216600184015288811b821660058401526009830188905286901b166029820152602d81018490528183604d8301375f9101604d0190815297965050505050505056fea26469706673582212208d27eae85e89ee6085347b8d5a908b41f66aed2be18dfe166e99c907927eff9764736f6c634300081b0033","linkReferences":{}},"methodIdentifiers":{"PACKAGE_VERSION()":"93c44847","VERSION()":"ffa1ad74","defaultHook()":"3d1250b7","defaultIsm()":"6e5f516e","delivered(bytes32)":"e495f1d4","deployedBlock()":"82ea7bfe","dispatch(uint32,bytes32,bytes)":"fa31de01","dispatch(uint32,bytes32,bytes,bytes)":"48aee8d4","dispatch(uint32,bytes32,bytes,bytes,address)":"10b83dc0","initialize(address,address,address,address)":"f8c8765e","latestDispatchedId()":"134fbb4f","localDomain()":"8d3638f4","nonce()":"affed0e0","owner()":"8da5cb5b","process(bytes,bytes)":"7c39d130","processedAt(bytes32)":"07a2fda1","processor(bytes32)":"5d1fe5a9","quoteDispatch(uint32,bytes32,bytes)":"9c42bd18","quoteDispatch(uint32,bytes32,bytes,bytes)":"f7ccd321","quoteDispatch(uint32,bytes32,bytes,bytes,address)":"81d2ea95","recipientIsm(address)":"e70f48ac","renounceOwnership()":"715018a6","requiredHook()":"d6d08a09","setDefaultHook(address)":"99b04809","setDefaultIsm(address)":"f794687a","setRequiredHook(address)":"1426b7f4","transferOwnership(address)":"f2fde38b"},"id":15}