{"abi":[{"type":"constructor","inputs":[{"name":"_mailbox","type":"address","internalType":"address"},{"name":"_trustedRelayer","type":"address","internalType":"address"}],"stateMutability":"nonpayable"},{"type":"function","name":"PACKAGE_VERSION","inputs":[],"outputs":[{"name":"","type":"string","internalType":"string"}],"stateMutability":"view"},{"type":"function","name":"mailbox","inputs":[],"outputs":[{"name":"","type":"address","internalType":"contract Mailbox"}],"stateMutability":"view"},{"type":"function","name":"moduleType","inputs":[],"outputs":[{"name":"","type":"uint8","internalType":"uint8"}],"stateMutability":"view"},{"type":"function","name":"trustedRelayer","inputs":[],"outputs":[{"name":"","type":"address","internalType":"address"}],"stateMutability":"view"},{"type":"function","name":"verify","inputs":[{"name":"","type":"bytes","internalType":"bytes"},{"name":"message","type":"bytes","internalType":"bytes"}],"outputs":[{"name":"","type":"bool","internalType":"bool"}],"stateMutability":"view"}],"bytecode":{"object":"0x60e06040526006608052348015610014575f5ffd5b506040516104f53803806104f5833981016040819052610033916100ca565b6001600160a01b0381166100985760405162461bcd60e51b815260206004820152602260248201527f5472757374656452656c6179657249736d3a20696e76616c69642072656c617960448201526132b960f11b606482015260840160405180910390fd5b6001600160a01b0391821660a0521660c0526100fb565b80516001600160a01b03811681146100c5575f5ffd5b919050565b5f5f604083850312156100db575f5ffd5b6100e4836100af565b91506100f2602084016100af565b90509250929050565b60805160a05160c0516103c46101315f395f8181609c015261015501525f818161010d015261017f01525f605e01526103c45ff3fe608060405234801561000f575f5ffd5b5060043610610055575f3560e01c80636465e69f146100595780638596c2261461009757806393c44847146100d6578063d5438eae14610108578063f7e83aee1461012f575b5f5ffd5b6100807f000000000000000000000000000000000000000000000000000000000000000081565b60405160ff90911681526020015b60405180910390f35b6100be7f000000000000000000000000000000000000000000000000000000000000000081565b6040516001600160a01b03909116815260200161008e565b6100fb604051806040016040528060068152602001651a971898971b60d11b81525081565b60405161008e9190610265565b6100be7f000000000000000000000000000000000000000000000000000000000000000081565b61014261013d3660046102f5565b610152565b604051901515815260200161008e565b5f7f00000000000000000000000000000000000000000000000000000000000000006001600160a01b03167f00000000000000000000000000000000000000000000000000000000000000006001600160a01b0316635d1fe5a96101ea86868080601f0160208091040260200160405190810160405280939291908181526020018383808284375f9201919091525061025a92505050565b6040518263ffffffff1660e01b815260040161020891815260200190565b602060405180830381865afa158015610223573d5f5f3e3d5ffd5b505050506040513d601f19601f820116820180604052508101906102479190610361565b6001600160a01b03161495945050505050565b805160209091012090565b602081525f82518060208401525f5b818110156102915760208186018101516040868401015201610274565b505f604082850101526040601f19601f83011684010191505092915050565b5f5f83601f8401126102c0575f5ffd5b50813567ffffffffffffffff8111156102d7575f5ffd5b6020830191508360208285010111156102ee575f5ffd5b9250929050565b5f5f5f5f60408587031215610308575f5ffd5b843567ffffffffffffffff81111561031e575f5ffd5b61032a878288016102b0565b909550935050602085013567ffffffffffffffff811115610349575f5ffd5b610355878288016102b0565b95989497509550505050565b5f60208284031215610371575f5ffd5b81516001600160a01b0381168114610387575f5ffd5b939250505056fea26469706673582212200b6531cc25d1007a54e9f39f0ccb046728ebfbb6b5c3262fbb305ad4f212f31864736f6c634300081b0033","linkReferences":{}},"methodIdentifiers":{"PACKAGE_VERSION()":"93c44847","mailbox()":"d5438eae","moduleType()":"6465e69f","trustedRelayer()":"8596c226","verify(bytes,bytes)":"f7e83aee"},"id":37}