{"abi":[{"type":"function","name":"VERSION","inputs":[],"outputs":[{"name":"","type":"uint8","internalType":"uint8"}],"stateMutability":"view"}],"bytecode":{"object":"0x6080604052348015600e575f5ffd5b50607d80601a5f395ff3fe6080604052348015600e575f5ffd5b50600436106026575f3560e01c8063ffa1ad7414602a575b5f5ffd5b6031600381565b60405160ff909116815260200160405180910390f3fea2646970667358221220f908047c31138112b4ea782f6a9ca88aca29312076d9e7cf074cf3152adc69a364736f6c634300081b0033","linkReferences":{}},"methodIdentifiers":{"VERSION()":"ffa1ad74"},"id":24}