{"abi":[{"type":"constructor","inputs":[],"stateMutability":"nonpayable"},{"type":"function","name":"deployedBlock","inputs":[],"outputs":[{"name":"","type":"uint256","internalType":"uint256"}],"stateMutability":"view"}],"bytecode":{"object":"0x60a0604052348015600e575f5ffd5b5043608052608051609860275f395f602e015260985ff3fe6080604052348015600e575f5ffd5b50600436106026575f3560e01c806382ea7bfe14602a575b5f5ffd5b60507f000000000000000000000000000000000000000000000000000000000000000081565b60405190815260200160405180910390f3fea2646970667358221220109de74ea793e68867b74ef4cc046e89fd9032183257847d2d1dc1809d0f34d664736f6c634300081b0033","linkReferences":{}},"methodIdentifiers":{"deployedBlock()":"82ea7bfe"},"id":21}